:020000040800F2
:1000000070CCFF1FA1020008AD020008AD0200087D
:10001000AD020008AD020008AD02000800000000BB
:10002000000000000000000000000000AD02000819
:10003000AD02000800000000AD02000831280008F1
:10004000AD020008AD020008AD020008AD020008D4
:10005000AD020008AD020008AD020008AD020008C4
:10006000AD020008000000000000000000000000D9
:10007000AD02000800000000AD020008AD0200085B
:10008000AD020008AD0200085D320008AD020008B4
:10009000AD020008AD020008AD020008AD02000884
:1000A000AD020008AD020008AD020008AD02000874
:1000B000AD020008AD020008AD020008AD02000864
:1000C000AD020008AD020008AD020008AD02000854
:1000D000AD020008AD020008AD020008AD02000844
:1000E000AD020008AD020008AD020008AD02000834
:1000F000AD020008AD020008AD020008AD02000824
:10010000AD020008AD020008AD020008AD02000813
:10011000AD020008AD020008AD020008AD02000803
:10012000AD020008AD020008AD020008AD020008F3
:10013000650B0008AD020008AD020008AD02000822
:10014000AD020008AD020008AD020008AD020008D3
:10015000AD020008AD020008AD020008AD020008C3
:10016000AD020008AD020008AD020008AD020008B3
:10017000AD020008AD020008AD020008AD020008A3
:10018000AD020008AD020008AD020008AD02000893
:100190002D2E0008AD020008AD020008AD020008D7
:1001A000AD020008AD020008AD020008AD02000873
:1001B000AD020008AD020008AD020008AD02000863
:1001C000000000000000000000000000000000002F
:1001D0000000000000000000AD0200080000000068
:1001E000AD020008AD02000800000000AD020008EA
:1001F000AD02000800000000000000000000000048
:1002000000F002F800F03CF80AA090E8000C8244EC
:100210008344AAF10107DA4501D100F031F8AFF2C9
:10022000090EBAE80F0013F0010F18BFFB1A43F0D4
:10023000010318477C560000AC560000103A24BF5A
:1002400078C878C1FAD8520724BF30C830C144BF3B
:1002500004680C607047000000230024002500267D
:10026000103A28BF78C1FBD8520728BF30C148BF19
:100270000B6070471FB503F0FEFC1FBD10B510BD2D
:1002800000F03FF91146FFF7F5FF03F019FA00F00F
:100290005DF903B4FFF7F2FF03BC00F065F900005D
:1002A000DFF818D00648804706480047FEE7000000
:1002B00005480649064A074B7047000070CCFF1FEF
:1002C000652B00080102000870C2FF1F70CCFF1FE1
:1002D00070C4FF1F70C4FF1F53EA020C00F0698056
:1002E0002DE9F04B4FF00006002B1FBFB3FA83F54A
:1002F00003FA05F424FA05F65E4012BF1643B2FA7B
:1003000082F502FA05F4C5F120051EBF22FA05FCAC
:1003100044EA0C04203556EA044C4FEA144418BF52
:10032000641C4FF000084FF00009904271EB030C81
:1003300039D3002919BFB1FA81F701FA07F6B0FAEB
:1003400080F700FA07F6C7F120071EBF20FA07FC66
:1003500046EA0C062037B6FBF4FCA7EB0507103F76
:1003600007F01F0BCBF120060CFA0BFB2CFA06F65C
:1003700044BFB3460026202FA4BF5E464FF0000BBB
:100380005BEA060C08BF4FF0010B19EB0B09ABFB46
:10039000027C48EB0608C01B06FB02CC0BFB03CC1F
:1003A00071EB0C01C1E70B46024641464846BDE8E9
:1003B000F08B13B54FF000004FF00001AFF3008059
:1003C000BDE81C40704710B54C1084EA530404D5B6
:1003D0004042C1F1000138BF491E1B4204D55242C0
:1003E000C3F1000338BF5B1EFFF776FF14F0804FA8
:1003F00004D04042C1F1000138BF491E14F0004F43
:1004000004D05242C3F1000338BF5B1E10BD032A63
:1004100040F2308010F0030C00F0158011F8013B21
:10042000BCF1020F624498BF11F801CB00F8013B08
:1004300038BF11F8013BA2F1040298BF00F801CBCC
:1004400038BF00F8013B11F0030300F02880083AA0
:10045000C0F0088051F8043B083A51F804CBA0E8FA
:100460000810F5E7121D5CBF51F8043B40F8043B4F
:10047000AFF30080D20724BF11F8013B11F801CB84
:1004800048BF11F8012B24BF00F8013B00F801CB55
:1004900048BF00F8012B704770477047704710B590
:1004A000203AC0F00B80B1E81850203AA0E818506C
:1004B000B1E81850A0E81850BFF4F5AF5FEA027C2D
:1004C00024BFB1E81850A0E8185044BF18C918C09C
:1004D000BDE810405FEA827C24BF51F8043B40F83D
:1004E000043B08BF7047D20728BF31F8023B48BF22
:1004F00011F8012B28BF20F8023B48BF00F8012B60
:100500007047754600F02CF8AE4605006946534624
:1005100020F00700854618B020B5FFF7C9FEBDE8FA
:1005200020404FF000064FF000074FF000084FF05A
:10053000000B21F00701AC46ACE8C009ACE8C009EB
:10054000ACE8C009ACE8C0098D46704710B5044658
:10055000AFF300802046BDE81040FFF79ABE0000D0
:10056000004870470CC2FF1F01491820ABBEFEE7D0
:1005700026000200704700008D48006840F001002E
:100580008B490860081D006840F00100091D0860E3
:100590004FF04020006820F001004FF0402108603B
:1005A00000BF4FF0402000680028FAD148F2070051
:1005B00080490860A22080490860212008607F48A7
:1005C000D0F8080220F4702040F400317B48C0F8D5
:1005D0000812D0F8040220F4702040F480317748EB
:1005E000C0F804127648D0F8080220F4702040F4D5
:1005F00000317348C0F808127248D0F8080220F49D
:10060000702040F400316F48C0F808126B48803009
:10061000006820F030006949803108606848803007
:10062000006820F030006649803108606548D0F8E5
:10063000800020F030006349C1F880005F488030BE
:10064000006820F003005D49803108605C4880301C
:10065000006820F003005A49803108605948D0F8FA
:10066000800020F003005749C1F880005448C03092
:10067000006820F0030040F001005149C0310860DB
:100680004F488030006820F080004D49803108607C
:100690004B48C030006840F010004949C031086044
:1006A0004848C030006820F0030040F00100454990
:1006B000C1F8C0000846D0F8800020F08000C1F8E2
:1006C00080004048C030006840F01000C1F8C00011
:1006D00039485038006820F0030037495039086025
:1006E0003548F830006840F480613348F8300160E4
:1006F00032488030006840F00300304980310860A3
:100700004FF448402C4910390860081D006820F05B
:10071000030040F00100091D08600846006840F031
:100720000400086025488430006840F08070234948
:100730008431086022488430006840F0807020498D
:10074000843108601F488430006840F080701D4983
:10075000C1F884001748006840F00040154908605F
:1007600000BF164880300068C0F300700028F8D140
:1007700000BF134880300068C0F300700028F8D133
:1007800000BF104880300068C0F300700028F8D126
:100790000D48006840F000410B4801600648A03059
:1007A000006820F0F0000449A031086070470000A4
:1007B000104400508040004010450040004400407C
:1007C000004C0040005000408446004010B5A04856
:1007D000B0F9140081039E48B0F91600A1EB403136
:1007E0009B48B0F91800A1EB4030401399490860CC
:1007F0009748B0F91610B0F91800081A43F26D7155
:1008000048434013934948609148B0F924008860F8
:100810008F48B0F92600C8600846408E8969484371
:100820008C4989688B4A926A891A8A4A1269891A9C
:10083000884A128E02FB01004012864988610846F0
:10084000408EC96948438349C968824AD26A891A75
:10085000804A5269891A7F4A128E02FB01004012B7
:100860007C49C861084680690968401A794908626C
:100870000846C0694968401A764948620846006AD5
:10088000898E48430011734908610846406A898E81
:10089000484300116F49486108460069896B8842E6
:1008A00004DD6C48806B6B4908610BE069480069A6
:1008B0006849896B4942884204DA6648806B404245
:1008C00064490861634840696249896B884204DD74
:1008D0006048806B5F4948610BE05E4840695D4954
:1008E000896B4942884204DA5A48806B4042594930
:1008F00048615848006E40425649C96A48435549C4
:10090000896A544A1269891A524AB2F9682002FB6C
:1009100011004FF47A5190FBF1F04E49896A084476
:100920004C4988620846006E896A48434949C96A49
:10093000484A5269891A474AB2F9682002FB1100F5
:100940004FF47A5190FBF1F04249C96A0844414999
:10095000C8620846806A0969401A3E49C96A484324
:100960003C49C96A3B4A5269891A3A4A926A01FB70
:1009700012004FF47A5190FBF1F03649096E0844A9
:10098000344908660846806AB1F93C10884205DDA2
:100990003048B0F93C002F4988620DE02D48806A4C
:1009A0002C49B1F93C104942884205DA2948B0F98E
:1009B0003C004042274988622648C06A2549B1F96F
:1009C0003C10884205DD2348B0F93C002149C8624B
:1009D0000DE02048C06A1F49B1F93C1049428842E5
:1009E00005DA1C48B0F93C0040421A49C86219496E
:1009F000B1F93E0000F066FB1649896A494200FBE6
:100A000001F41449B1F93E0001F0F8FB1149C96A3B
:100A100001FB104000130F49C8640846C08FA1F8BD
:100A2000400001F017FB0B48B0F93E000949B1F94D
:100A30006A10084400F561604FF4616190FBF1F2C7
:100A400001FB120000B20349A1F8420010BD0000F2
:100A500000000020D870002010B52B480088B0F5A9
:100A6000FA5F05DB0020284908800120274908702B
:100A700026480078A8B92648B0F8600001B2254899
:100A8000214A128820F812101F49098830F91100F4
:100A9000C117214AD2E90032C01851411E4A03C28F
:100AA0002BE01C481849098830F91100C3171A496E
:100AB000D1E90021101A61EB0301174A03C214485F
:100AC000B0F8600000B213490F4A128821F81200F2
:100AD00008460D49098830F91100C1170E4B0CCB9F
:100AE000801859410C4A03C24FF4FA5200230A49B4
:100AF00003C9FFF768FC0649486603480088401CA4
:100B00000149088010BD000068C0FF1F78C0FF1FAA
:100B1000D87000204471002070C0FF1F00210C4AD3
:100B200051661166002005E000210A4A22F81010E3
:100B3000411C88B2B0F5FA5FF6DB0022064B1A6062
:100B40005A600021054A1180054A11707047000063
:100B5000D87000204471002070C0FF1F68C0FF1FC4
:100B600078C0FF1F10B5484890F83E0030B101280A
:100B70001ED0022849D003287AD160E04348B0F95A
:100B80000000434908604148B0F90000401C414959
:100B9000C1F83C023D48B0F90000401CC1F83C03DC
:100BA0000846006940F2111108433A49086160E0C3
:100BB0003648B0F92C00364908603448B0F92E00A8
:100BC0003449C1F83C023148B0F93000C1F83C0367
:100BD0000846006941F2111108432E49086100BF1F
:100BE0002D480088401C2C490880084601882B4865
:100BF000B0F89200814206D10020274908800121E7
:100C0000214880F83F1000BF33E02048B0F92C00A5
:100C10001F4908601D48B0F92E001E49C1F83C026A
:100C20001A48B0F93000C1F83C030846006941F2A7
:100C3000111108431749086101F0AAFF19E0134890
:100C4000B0F92C00124908601048B0F92E00114983
:100C5000C1F83C020D48B0F93000C1F83C03084629
:100C6000006941F2111108430A49086101E0FFE7F8
:100C700000BF00BF06487430006840F0020005491C
:100C8000C1F8B00110BD000000000020F0C0FF1F3F
:100C90003C0102400000024000C0FF1F42700020E3
:100CA00040F6A661481CFB4A126842F08002F94BEC
:100CB0001A601A1D126842F080021B1D1A60F64A63
:100CC000126842F01002F44B1A60F44AD26842F4FF
:100CD0008072F24BDA60F24A126822F00F02C3F817
:100CE00024211A46D2F8282122F00802C3F828212C
:100CF000EB4A243A126822F00F0242F00702C3F8CE
:100D00000021E74A243A126822F4403242F4803249
:100D1000C3F80021E24A203A126822F0030242F0AE
:100D20000102C3F80421DE4A103A126842F0007250
:100D3000C3F81421DA4A103A126842F00102C3F8EB
:100D40001421D74A103A126842F48062C3F8142181
:100D5000D34A2C32126822F47F4242F47052C3F814
:100D60005021CF4A2C32126822F0FF0242F03C029E
:100D7000C3F85021CA4A2832126842F00102C3F86F
:100D80004C21C74A2832126842F00402C3F84C21B1
:100D9000C34A2832126842F00802C3F84C211A46AE
:100DA000D2F8342161F30F02C3F834211A46D2F885
:100DB0003C2160F30F02C3F83C211A46D2F82422EA
:100DC00022F00F02C3F824221A46D2F8282222F079
:100DD0000802C3F82822B24ADC32126822F00F025D
:100DE00042F00702C3F80022AD4ADC32126822F456
:100DF000403242F48032C3F80022A94AE03212683D
:100E000022F0030242F00102C3F80422A44AF032A5
:100E1000126842F00072C3F81422A14AF03212683C
:100E200042F00102C3F814229D4AF032126842F4E3
:100E30008062C3F814229B4A126822F47F4242F473
:100E40007052C3F85022974A126822F0FF0242F013
:100E50003C02C3F85022934A121F126842F001026A
:100E6000C3F84C228F4A121F126842F00402C3F8E2
:100E70004C228C4A121F126842F00802C3F84C221E
:100E80001A46D2F8342261F30F02C3F834221A460C
:100E9000D2F83C2260F30F02C3F83C221A46D2F883
:100EA000242322F00F02C3F824231A46D2F8282361
:100EB00022F00802C3F828237A4AB032126822F0DE
:100EC0000F0242F00702C3F80023764AB0321268DC
:100ED00022F4403242F48032C3F80023714AB43223
:100EE000126822F0030242F00102C3F804236D4AA3
:100EF000C432126842F00072C3F81423694AC43243
:100F0000126842F00102C3F81423664AC432126820
:100F100042F48062C3F81423634A126822F47F42C9
:100F200042F47052C3F850235F4A126822F0FF0265
:100F300042F03C02C3F850235B4A121F126842F091
:100F40000102C3F84C23584A121F126842F00402EF
:100F5000C3F84C23544A121F126842F00802C3F827
:100F60004C231A46D2F8342361F30F02C3F834231A
:100F70001A46D2F83C2360F30F02C3F83C234A4AD6
:100F8000D432126822F00F02474BD4331A601A1D74
:100F9000126822F008021B1D1A60434AB032126820
:100FA00022F00F0242F007023F4BB0331A601A469C
:100FB000126822F4403242F480321A601A1D12681C
:100FC00022F0030242F001021B1D1A60364AC432AD
:100FD000126842F00102344BC4331A601A46126898
:100FE00042F480621A60304AE432126861F30F0200
:100FF0002D4BE4331A602C4AEC32126860F30F0276
:10100000294BEC331A60264A8032126842F0020201
:10101000224BC3F8A4211A46D2F8A82122F00302D9
:10102000C3F8A821214A126842F001021F4B1A603E
:101030001A1D126822F0030242F002021B1D1A6000
:10104000164A126942F00102144B1A611A461269DB
:1010500042F010021A611A46126942F480721A6153
:101060001A46126942F480521A611A46D26842F056
:101070000102DA601A46D26842F00202DA601A46C9
:10108000D26842F00402DA601A46D26842F00802DE
:10109000DA607047104400500446005000000240DF
:1010A000240102405002024050030240A4040240C6
:1010B0000348C06C40F480700149C8647047000068
:1010C00000400050014601F5617001B2B1F5616F59
:1010D00002DBA1F5616001B2014830F911007047EF
:1010E000803C000810B502460B460024002100BFDA
:1010F00003E0505C0444481CC1B29942F9DBE0B201
:1011000010BD000070B5FE480078401EC0B2FC491A
:10111000087000287ED1FB4890F8900000287AD112
:10112000F94890ED020ADFEDF90A20EE200ABCEE44
:10113000C00A10EE100A84B2F34890ED030ADFED06
:10114000F30A20EE200ABCEEC00A10EE100A85B2A7
:10115000A120EF490870EF4890F83E004870EE4833
:1011600090F864008870EC48B0F86400000AC87019
:10117000E848807F0871E748C08B000A4871E5485D
:10118000007F8871E348808B000AC871DD4890F8C1
:101190008A000872DB4890F88A0000124872D94829
:1011A00090F88B008872D74890F88B000012C872B4
:1011B000D44890F892000873D248B0F89200001218
:1011C0004873D54890F868008873D348B0F8680031
:1011D000000AC873CF4880790874CE48C088000AD6
:1011E0004874C84890F890008874C64890F89000F9
:1011F0000012C874C74890F822000875C548408C92
:10120000000A4875C348807F8875C248C08B000AB1
:10121000C87501E0E1E215E0BE48007F0876BD48F0
:10122000808B000A487600208876C87608771D21D2
:10123000B748FFF757FFB649487778208877562098
:10124000C877C4E2AF4890F8900001287BD1B1483C
:10125000008886B2B14890ED020ADFEDAC0A20EEBC
:10126000200ABCEEC00A10EE100A84B2AB4890ED22
:10127000030ADFEDA60A20EE200ABCEEC00A10EE3B
:10128000100A85B2A120A2490870A24890F83E0039
:101290004870A14890F8640088709F48B0F86400D6
:1012A000000AC8709B48807F08719A48C08B000A6A
:1012B00048719848007F88719648808B000AC871F1
:1012C0000C72201248728D722812C872282008737E
:1012D000032048739148007D88739048808A000AF3
:1012E000C8730E7430124874864890F89000887461
:1012F000844890F890000012C874864890F8220044
:1013000008758448408C000A48758248807F88753B
:101310008048C08B000AC8757E48007F08767D48EB
:10132000808B000A487600208876C87608771D21D1
:101330007748FFF7D7FE7649487778208877562098
:10134000C87744E2FFE76F4890F8900002287CD10C
:101350006D4890ED020ADFED6D0A20EE200ABCEE2A
:10136000C00A10EE100A84B2674890ED030ADFED60
:10137000670A20EE200ABCEEC00A10EE100A85B201
:10138000A12063490870634890F83E0048706248A5
:1013900090F8640088706048B0F86400000AC87073
:1013A0005C48807F08715B48C08B000A48715948CF
:1013B000007F88715748808B000AC8710C72201218
:1013C00048728D722812C87228200873032048734F
:1013D0004D48007D88734C48808A000AC8734D4888
:1013E000807908744B48C088000A4874454890F8D2
:1013F00090008874434890F890000012C8744548E3
:1014000090F8220008754348408C000A487541480E
:10141000807F88753F48C08B000AC8753D48007FB3
:1014200008763C48808B000A487600208876C8768B
:1014300008771D213648FFF755FE35494877782053
:1014400088775620C877C2E1FFE72E4890F89000D1
:10145000032869D1324890ED020ADFED2C0A20EE14
:10146000200ABCEEC00A10EE100A84B22C4890ED9F
:10147000030ADFED260A20EE200ABCEEC00A10EEB9
:10148000100A85B2A12022490870224890F83E0037
:101490004870214890F8640088701F48B0F86400D4
:1014A000000AC8701B48807F08711A48C08B000A68
:1014B00048711848007F88711648808B000AC871EF
:1014C0000C72201248728D722812C872124890F85D
:1014D0004C0008731048B0F84C00000A48731148DB
:1014E000007888730F480088000AC87328200874A1
:1014F00003204874034890F890008874014814E071
:10150000E4C0FF1F4270002050C0FF1F00401C4677
:1015100022C1FF1F00000020D870002020C0FF1F44
:1015200008C0FF1FACC0FF1F28E090F89000001219
:10153000C874AA4890F822000875A848408C000A90
:101540004875A648807F8875A448C08B000AC87576
:10155000A248007F0876A148808B000A48760020C8
:101560008876C87608771D219D48FFF7BBFD9C490A
:101570004877782088775620C87728E1994890F8EE
:10158000900004287ED1984890ED020A5FED210A70
:1015900020EE200ABCEEC00A10EE100A84B2924877
:1015A00090ED030A5FED270A20EE200ABCEEC00A88
:1015B00010EE100A85B2A12089490870874890F87A
:1015C0003E004870894890F8640088708748B0F8F9
:1015D0006400000AC8708148807F08717F48C08B12
:1015E000000A48717D48007F88717C48808B000A22
:1015F000C8717E4890F8320008727C48408E001214
:1016000048727A4890F8300088727848008E00124C
:10161000C872764890F8340008737448808E0012BF
:101620004873724890F8680088737048B0F8680092
:10163000000AC873694890F840000874674890F839
:10164000400000124874674890F89000887465481C
:1016500090F890000012C874604890F82200087555
:101660005E48408C000A48755C48807F88755B48FE
:10167000C08B000AC8755948007F08765748808B90
:10168000000A00E00FE0487600208876C8760877E8
:101690001D215348FFF726FD514948777820887768
:1016A0005620C87793E04F4890F890000528F9D16C
:1016B0004D4890ED020A5FED6B0A20EE200ABCEE69
:1016C000C00A10EE100A84B2474890ED030A5FED9D
:1016D000710A20EE200ABCEEC00A10EE100A85B294
:1016E000A1203F4908703D4890F83E0048703F48AF
:1016F00090F8640088703D48B0F86400000AC87033
:101700003648807F08713548C08B000A48713348DD
:10171000007F88713148808B000AC8712F4890F88B
:10172000340008722D48808E000A48722D4890F8C7
:101730008E0088722B4890F88E000012C8722948DB
:1017400090F88F000873274890F88F0000124873B4
:10175000264890F86A0088732448B0F86A00000AA6
:10176000C873204890F88C0008741E48B0F88C00AC
:10177000001248741B4890F890008874194890F83B
:1017800090000012C874154890F82200087513489C
:10179000408C000A48751148807F88750F48C08BBF
:1017A000000AC8750D48007F08760C48808B000A37
:1017B000487600208876C87608771D210848FFF70C
:1017C00091FC07494877782088775620C877012010
:1017D0000749087032200749087070BD00000020DA
:1017E00022C1FF1F4270002050C0FF1FD870002090
:1017F000E5C0FF1FE4C0FF1F2DE9F041C82400250C
:10180000002600274FF0000845E02C48006840F40F
:1018100000702A490860022001F038FF00BF284804
:101820000068C0F3800050B926480068C0F380000B
:1018300028B922488030006800200028EFD02248D4
:10184000006880B205442148006880B20644204800
:10185000006880B2074419489030006840F00200E8
:101860001649903108600846006840F0040008609E
:1018700013481030006840F004001149103108602E
:1018800010481030006840F0040011497831C1F868
:10189000940108F10108A045B7DB95FBF4F00D4970
:1018A000088796FBF4F081B20A48418797FBF4F071
:1018B00081B208488187BDE8F081000004450040FE
:1018C000844D0040845100408847004088530040C8
:1018D000884F00400000002010B5054A012105484E
:1018E00001F0ECFD0121034801F012FE10BD0000E3
:1018F000A85800080080014810B50446A2B2012192
:10190000014801F010FE10BD0080014816488078A3
:10191000012827D114488088B0F5616F22DA134876
:10192000818C11488288801D20F812100F48C18CCC
:101930000D4882880E4820F812100E48008801B227
:10194000094882880C4820F812100A48808802B2A0
:1019500005488188094820F8112003488088401CE8
:1019600001498880704700004200002000000020EC
:10197000681C0020D870002088380020A85400205F
:101980000EB580208DF800006A460021284801F03D
:10199000DBFD98208DF800004FF48030019000208E
:1019A0008DF808006A460521224801F0CDFD6A46FF
:1019B0000421204801F0C8FD6A4603211D4801F0BA
:1019C000C3FD6A4602211B4801F0BEFD6A460121A3
:1019D000184801F0B9FD6A460021164801F0B4FD2F
:1019E00000208DF800006A460121134801F0ACFD8B
:1019F0006A460221104801F0A7FD6A4608210E48F8
:101A000001F0A2FD6A4602210C4801F09DFD102064
:101A10008DF800006A460221094801F095FD9020EA
:101A20008DF800006A460521054801F08DFD0EBDC8
:101A30000081024800800248008E0248008F024860
:101A40000082024810B500F0E7FB00F00BFC4A48AA
:101A5000B0F94A0000F561604FF4616190FBF1F26A
:101A600001FB120000B24449A1F84A00B1F94A0052
:101A700000F0C4FB4149098810FB01F0C01300B21B
:101A80003D49A1F858000846B0F858003B49488045
:101A90003949B1F94A00FFF715FB3849098810FBAD
:101AA00001F0C01300B23449A1F85A000846B0F85A
:101AB0005A00324908803048B0F95A0000EE100A46
:101AC000B8EEC00A2E4880ED000A2B49B1F94A0051
:101AD000FFF7F8FA2949098C10FB01F0C4132649D5
:101AE000B1F94A0000F08AFB2449498C10FB01F04F
:101AF00004EBE03000B22049A1F854000846B0F8E9
:101B000054101E4801841C48B0F9540000EE100A1D
:101B1000B8EEC00A1B4880ED000A1749B1F94A0027
:101B200000F06CFB1549B1F9201049424843C41339
:101B30001149B1F94A00FFF7C5FA1049498C10FB69
:101B400001F004EBE03000B20B49A1F85600084662
:101B5000B0F85610094841840748B0F9560000EE25
:101B6000100AB8EEC00A084880ED000A01200249B8
:101B700081F8520010BD0000D87000200000002045
:101B8000C0C0FF1FE0C0FF1FD0C0FF1F10B500F096
:101B90001BF8064800F012F8054800F00FF8054859
:101BA00000F00CF8044800F009F810BD38C0FF1F21
:101BB00020C0FF1F08C0FF1F50C0FF1F0021016091
:101BC000416001617047000010B540F6A6603649DB
:101BD0000880FEF7A3FF00F0A7FB00F083FC0020C5
:101BE00032494880088040F6B830C88000212F482C
:101BF000C1838183018441848184C18480F83F1042
:101C000080F840104FF47A612948A0F89210002023
:101C1000284908804880888000212448C1860F21F7
:101C2000818647F230512248A0F88C100F2180F8AD
:101C30008E10052180F88F100021A0F88610A0F8E2
:101C4000881000201C49888088700021184880F87E
:101C50008A1080F88B10002018498862C862886159
:101C6000C86108600862486048628860C8600861AE
:101C7000486140F2EB1048863420088604208886AC
:101C800047F230508863888740F6B830A1F8680082
:101C90000020A1F86A00C887A1F84000C86481F854
:101CA0005200A1F85C0010BDF0C0FF1F0000002032
:101CB0004270002000C0FF1F42000020D8700020AA
:101CC0002DE9F047044604F596604FF4616190FBFE
:101CD000F1F201FB120085B204F5166090FBF1F2FF
:101CE00001FB120086B220B2FFF7ECF91F49898A86
:101CF00010FB01F04FEA600930B2FFF7E3F91B492E
:101D0000C98A10FB01F009EB600928B2FFF7DAF984
:101D10001649098B10FB01F009EB600720B200F0B7
:101D20006DFA1249898A10FB01F04FEA600930B25E
:101D300000F064FA0D49C98A10FB01F009EB600953
:101D400028B200F05BFA0949098B10FB01F009EB9E
:101D50006000C0F10008B81301B20448C1834FEA23
:101D6000A83001B201488183BDE8F087000000205F
:101D70001E48007810B900201D4908711C480079E0
:101D800028B91A480078012801D119490871184862
:101D90000079012807D1164890F83F00012802D1A8
:101DA00002201349087112480079022807D110480F
:101DB00090F84000012802D103200D4908710D4818
:101DC000807830B90C4890F88A00012801D109497F
:101DD000887008488078012807D1074890F88B0060
:101DE000012802D10220034988707047E9C0FF1F13
:101DF00000000020420000204270002010B50121A8
:101E0000122001F023FC00213C2001F01FFC0321E3
:101E1000542001F01BFC0321081F01F017FC1220C5
:101E200001F006FC3C2001F003FC4FF0FF3001F014
:101E3000FFFB542001F0FCFB10BD00000048704780
:101E4000001BB7003B4800683A4948603A48B0F97F
:101E50000210B0F91E00081A3649086008460068EA
:101E60004968401A00EE100AB8EEC00A3148D0EDB9
:101E7000020A20EE200A314880ED000A2D48D0EDFC
:101E8000030A90ED000AB8EEC00A20EE800A2C4842
:101E900080ED000A294890ED000A2948D0ED000A9B
:101EA00030EE200A274880ED000A274890ED000A0E
:101EB0002448D0ED000A30EE200A234880ED000AC5
:101EC0001C4890ED050AB8EEC00A1F48D0ED000A84
:101ED000B4EEE00AF1EE10FA08D8164890ED050AC3
:101EE000B8EEC00A184880ED000A18E011484069B1
:101EF000404200EE100AB8EEC00A1348D0ED000AC6
:101F0000B4EEE00AF1EE10FA09DB0A4840694042FB
:101F100000EE100AB8EEC00A0B4880ED000A0A482D
:101F200090ED000ABDEEC00A10EE100A01B20248A0
:101F30000184704738C0FF1F00000020D4C0FF1F7D
:101F4000D8C0FF1FDCC0FF1FE0C0FF1F3B48006878
:101F50003A4948603A48B0F90010B0F91C00081A34
:101F600036490860084600684968401A00EE100AC1
:101F7000B8EEC00A3148D0ED020A20EE200A3148FE
:101F800080ED000A2D48D0ED030A90ED000AB8EE6E
:101F9000C00A20EE800A2C4880ED000A294890ED06
:101FA000000A2948D0ED000A30EE200A274880EDCB
:101FB000000A274890ED000A2448D0ED000A30EED0
:101FC000200A234880ED000A1C4890ED050AB8EE6F
:101FD000C00A1F48D0ED000AB4EEE00AF1EE10FA94
:101FE00008D8164890ED050AB8EEC00A184880EDEA
:101FF000000A18E011484069404200EE100AB8EEAD
:10200000C00A1348D0ED000AB4EEE00AF1EE10FA6F
:1020100009DB0A484069404200EE100AB8EEC00AE7
:102020000B4880ED000A0A4890ED000ABDEEC00A98
:1020300010EE100A01B202484184704720C0FF1F11
:1020400000000020C4C0FF1FC8C0FF1FCCC0FF1F7E
:10205000D0C0FF1F1C4800681B4948601B48C06C6B
:102060000860084600684968401A01EE100AB8EE98
:10207000C11A1548D0ED021A21EE211AB0EE410A1C
:10208000D0ED031A90ED001AB8EEC11A21EE811AB4
:10209000F0EE410A30EE201ABDEEC11A0C4880ED78
:1020A000001A0A48B0F93E0009490968084400F5D9
:1020B00061604FF4616190FBF1F201FB120000B22C
:1020C0000249C8877047000008C0FF1FD870002071
:1020D000ACC0FF1F1248006840F40070104908604F
:1020E000081D006840F40070091D08600D48006874
:1020F00040F010000B4908600B48006820F0030016
:1021000040F00200084908600846006840F02000DE
:1021100008600846806840F0010088607047000051
:1021200010440050044600500080024010B52F4873
:1021300000682F4908812F48006881B22C484181EE
:102140002D48006881B22A488181008F2849098979
:10215000401AC0EBC00000EB40000A2190FBF1F0F8
:1021600001B223488182418F4089081AC0EBC00028
:1021700000EB40000A2190FBF1F001B21C48C18243
:10218000818F8089081AC0EBC00000EB40000A2153
:1021900090FBF1F001B216480183B0F9140041F24E
:1021A0008831884219DC1248B0F91600884214DCE4
:1021B0000F48B0F9180088420FDC0D48B0F9140040
:1021C0004942884209DB0A48B0F91600884204DB1C
:1021D0000748B0F91800884207DA00F009FB002030
:1021E000034981F83E00FFF7D1FC10BD884700404D
:1021F0000000002088530040884F00400146B1F5A0
:10220000616F02DBA1F5616001B2024830F9110093
:1022100070470000803C00081048B0F94210104898
:10222000B0F93600081A00F561604FF4616190FB67
:10223000F1F201FB120000B20849A1F8480008467B
:10224000B0F94800B0F5FA6F07DD0846B0F848006D
:10225000A0F5616000B2A1F848007047D870002076
:102260000000002010B52B480088B0F5FA6F05DBA0
:102270000020284908800120274908702648007856
:10228000A8B92648B0F848002549224A128821F802
:10229000120008461F49098830F91100C117214A68
:1022A000D2E90032C01851411E4A03C22CE01C483A
:1022B0001849098830F91100C2171A49D1E90031CB
:1022C000181A61EB0201174A03C21448B0F848001B
:1022D0001349104A128821F8120008460D4909884E
:1022E00030F91100C1170F4B0CCB801859410D4A22
:1022F00003C24FF4FA6200230A4903C9FEF763F8E8
:1023000000B20649A1F84A0002480088401C014971
:10231000088010BD7AC0FF1F88C0FF1FD870002042
:10232000C4AF002080C0FF1F00210D4AA2F8481052
:10233000A2F84A10002005E000210A4A22F81010F5
:10234000411C88B2B0F5FA6FF6DB0022064B1A602A
:102350005A600021054A1180054A1170704700003B
:10236000D8700020C4AF002080C0FF1F7AC0FF1FBC
:1023700088C0FF1F2DE9F0412DED048B50480088E7
:10238000B0F57A6F05DB00204D49088001204D49EA
:1023900008704C480078D8BB4B48B0F93E004A4919
:1023A000B1F94010401A10F5FA6F0EDD4648B0F949
:1023B0003E004549B1F94010401A06D50521434871
:1023C0003F4A128820F8121014E03F48B0F93E004E
:1023D0003D49B1F94010401A00F5E1504FF46161F8
:1023E00090FBF1F201FB120000B23849344A128826
:1023F00021F8120035483249098830F91100C11717
:10240000334AD2E90032C0185141314A03C24EE08A
:10241000FFE72E482A49098830F91110CB172C48BC
:10242000D0E90020511A60EB0300294AC2E90010EC
:102430002548B0F93E002449B1F94010401A00F592
:10244000E1504FF4616190FBF1F201FB120000B228
:10245000204908800846B0F900001C49184A128833
:1024600021F8120008461649098830F91100C117F1
:10247000174B0CCB80185941154A03C21448164D0E
:1024800012C80020A1FB052704FB057401FB0041D5
:10249000104601F04BFB9FED110B53EC102B01F09C
:1024A000BDF901F013FB00B20749A1F85000044840
:1024B0000088401C02490880BDEC048BBDE8F08117
:1024C0008AC0FF1F9AC0FF1FD870002064BF002081
:1024D00090C0FF1F98C0FF1F00879303000000807B
:1024E00074D2DA4100210C4AA2F85010002005E015
:1024F00000210A4A22F81010411C88B2B0F57A6F08
:10250000F6DB0022064B1A605A600021054A118052
:10251000054A117070470000D870002064BF002089
:1025200090C0FF1F8AC0FF1F9AC0FF1FA64AD18418
:1025300046F6DA62424341F35003C3EBE23212B291
:10254000A14B1A8546F6DA624243D213534241F355
:1025500050029A1A12B29C4B5A851A46D28C1B888A
:1025600012FB03F2D21312B2974B5A831A46528DC2
:102570001B8812FB03F2D213524212B2924B9A837F
:102580001A46128D1B8812FB03F2D213524212B26A
:102590008D4BDA831A46B2F92620002A02DD012289
:1025A0001A8402E00022884B1A84874AB2F9282054
:1025B000002A03DD0222844B5A8402E00022824B6F
:1025C0005A84814AB2F92A20002A03DD04227E4B74
:1025D0009A8402E000227C4B9A847B4AD28A7A4B0E
:1025E0009A821A46128C5B8C1A44774B9B8C1A4445
:1025F00012B2754BDA821A46B2F91620072A41D276
:10260000DFE802F040040C16202A34006E4AD28B18
:102610006D4BDA801A46928B1A8138E06A4A928BA7
:10262000694BDA801A46528B524212B21A812EE05E
:10263000654AD28B524212B2634BDA801A46528BF1
:102640001A8124E0604A528B524212B25E4BDA8009
:102650001A46D28B1A811AE05B4A528B5A4BDA80A7
:102660001A46928B524212B21A8110E0564A928B4D
:10267000524212B2544BDA801A46D28B524212B2F4
:102680001A8104E00022504BDA801A8100BF00BF9B
:102690004D4AD2884C4B1B891A4412B24A4B5A817C
:1026A0001A46B2F90A20B3F900309A4214DD464ABC
:1026B0001288454BDB8812FB03F2434BB3F90A3017
:1026C00092FBF3F212B2404BDA801A461288DB8892
:1026D000D21A12B23C4B1A813B4AB2F900203A4B53
:1026E000B3F90630D21A384BB3F90830D21A521067
:1026F00012B2354B9A811A469289DB881A4412B27B
:10270000314BDA811A46D2891B891A4412B22E4BF8
:102710001A821A46B2F91620072A47D2DFE802F0D9
:1027200046040F1A25303B00274AD289264B9A854A
:102730001A469289DA851A46128A1A8641E0224A96
:102740009289214B9A851A46128ADA851A46D289CD
:102750001A8636E01C4A92891B4B9A851A46D28902
:10276000DA851A46128A1A862BE0174A128A164B05
:102770009A851A46D289DA851A4692891A8620E005
:10278000114A128A104B9A851A469289DA851A469E
:10279000D2891A8615E00C4AD2890B4B9A851A46C3
:1027A000128ADA851A4692891A860AE0064A12883F
:1027B000054B9A851A461288DA851A4612881A86B7
:1027C00000BF00BF70470000F0C0FF1F10B50648F3
:1027D000007830B10020044908702021034800F03F
:1027E000FFFA00F07BFB10BDE5C0FF1F22C1FF1FF9
:1027F0000548406C6FF30F00034948640846806C3D
:1028000040F0040088647047008002400748406C34
:102810006FF30F0040F2333108430449486408461F
:10282000806C40F004008864704700000080024023
:1028300010B50648007840B105488078022802D0DB
:10284000FEF760FC01E000F0C9FD10BDE8C0FF1F0D
:102850004200002010B57848006800F0010070B90F
:102860007548001D006840F001007449C1F8040279
:1028700000BF7148006800F001000028F9D07048DE
:10288000006800F4007058B16D480830006840F4EA
:1028900000706B490831086041F64C5000F0EAFEC8
:1028A0006848006840F400206649086040F6C4109B
:1028B00000F0E0FE63480068634908406149086031
:1028C00060481038006800F0300060B35D48103890
:1028D00000685E4908405B4910390860FFF7AEFAAE
:1028E0005B49B0FBF1F0401E56491039096841EAD6
:1028F000004054491039086052480830006820F000
:1029000001005049083108604E48006820F400304A
:102910004C49086000BF4B48001F006800F460701D
:10292000B0F5607FF7D14748006840F001004549A5
:1029300008600846006840F0100008604548091D1E
:102940000860081F006840F04000091F0860084642
:10295000006820F0100008600846006840F48020FD
:10296000086000BF3748001F006800F0040000281E
:10297000F8D03448006820F001003249086000BFF8
:102980003048001F006800F001000028F8D13248EC
:10299000006840F480303049086000202E4908313A
:1029A0000860091F08602C4914310860091D08607F
:1029B000032029490C3108602248006820F04000BB
:1029C000204908602548091D086040F6B83000F02D
:1029D00051FE00BF1B48001F006800F004000028E3
:1029E000F8D01F481749091D086041F2941000F003
:1029F00041FE00BF1348001F006800F004000028DB
:102A0000F8D018480F49091D086041F2707000F0B5
:102A100031FE00BF0B48001F006800F004000028D2
:102A2000F8D0052004499439086000200A49083983
:102A3000086000F019F810BD00420050004000503E
:102A40000044005014470050FDFFFEFFCFFFF0FF91
:102A5000A0252600004F13010C460050004F07012F
:102A6000004F0401004F030170B52449096801F4C7
:102A7000803181B32249096801F0010109B121487F
:102A800001E0FFF7DBF91E490C39096801F0040188
:102A9000C1B11B49091F0968C1F303614E1C1849E4
:102AA000091F0968C1F306214D1C1549091F096852
:102AB000C1F306414C1C16FB04F1B0FBF1F101FB24
:102AC00005F00AE00E49091F096801F07F014C1C5E
:102AD000B0FBF4F001E0FFE70A4808490968C9B211
:102AE000491CB0FBF1F00549091D096801F001011D
:102AF000491CB0FBF1F00449086070BD0C46005061
:102B00001C47005000366E01C0FF002072B612490B
:102B1000124A116000BF00BF00BFBFF34F8F00BF5C
:102B200000BF00BF62B60D498031096841F47001F1
:102B30000A4A8032116009490C31096821F0080104
:102B4000064A0C3211600649486920F00F0040F037
:102B500003004861704700000000000808ED00E035
:102B60000020005810B5102251060648FDF74FFC12
:102B70000548064B0ECB0EC0FFF7C8FFFFF76AFEF5
:102B800010BD0000C4FF0020D4FF002084000020FE
:102B900029484088401C28494880084641882748E1
:102BA000B0F88C00814208D12548808E401C01B2CB
:102BB000234881860020204948802148B0F93410FC
:102BC0001E4890F88E00814204DB1C4890F88E105D
:102BD0001B48818618488088401C17498880084611
:102BE0008188164890F88F00814213D11448B0F9BB
:102BF0003610B0F93400084400F561604FF46161AB
:102C000090FBF1F201FB120001B20D48C1860020D9
:102C1000094988800848C088401C0749C880084680
:102C2000C088B0F57A6F05D10020C8800121044822
:102C300080F840107047000000C0FF1F4270002065
:102C4000000000206148006840F400605F490860AF
:102C5000081D006840F40060091D086003205C49FD
:102C60000860084600685B4908605948001D006814
:102C700020F4404040F400405749C1F81002544845
:102C8000001D00686FF3090040F46870C1F810027D
:102C90000846D0F8140220F44070C1F814024C48E1
:102CA0000830006820F4F84040F47050C1F8140275
:102CB0000846D0F814024949084040F468104649D3
:102CC000C1F814020846D0F81C0220F00700C1F831
:102CD0001C020846D0F8180220F4E060C1F818027F
:102CE0000846D0F8340220F00100C1F83402384818
:102CF0002830006840F00200C1F83402344828301F
:102D0000006820F4407040F48070C1F8340230480C
:102D10002830006820F47C1040F4E020C1F8340230
:102D20002B482830006820F0706040F0E060C1F867
:102D3000340227482C30006820F4406040F4806062
:102D4000C1F8380222482C30006840F48070C1F885
:102D500038021F483030006840F00100C1F83C02E2
:102D60000846D0F83C0220F00200C1F83C021848A6
:102D70003030006820F4F85040F4E060C1F83C02C4
:102D800013483C30006840F40050C1F84802104835
:102D90003430006820F00F0040F00200C1F840021B
:102DA0000846D0F8400220F44070C1F840020848BC
:102DB0003430006840F48040C1F8400204483430A8
:102DC000006840F40040C1F84002704710440050D1
:102DD0000C020340ECC0FF1F00000340FFFF00FC9B
:102DE00010B503460C4603E013F8010B00F006F89B
:102DF000201EA4F101018CB2F6D110BD0949096869
:102E000041F40051084AC2F84C12064934310860B6
:102E100000BF0449091F096801F400510029F8D0D6
:102E2000704700004C020340000003402749096836
:102E300001F4004129B92549096801F480410029BC
:102E400043D02249091D096841F40041204AC2F8D3
:102E50004C121146D1F84C1241F48041C2F84C1288
:102E60001A490C310968C8B21A49098801F40041AD
:102E700059BB1849098801F4804161B1122803D077
:102E80000021144A118020E01249098841F40041D0
:102E9000104A118019E0342806D10E49098841F4FE
:102EA00080410C4A118010E00A490988C1F30D01E4
:102EB000094A505407490988491C064A118011469D
:102EC0000988C72901DD00211180704748020340AD
:102ED00000000340E6C0FF1F42C1FF1F0020B849A9
:102EE000098801F4004100297ED0B5490988C1F361
:102EF0000D01062939D1B3490978A129FAD1B1497F
:102F00008978B04AD27841EA022108B2AE4991F8F4
:102F1000901059BBAB494978082925D2DFE801F068
:102F200004070D1014181C20A84A10701DE0012879
:102F300000DD0020A64A107017E0A649C88014E002
:102F4000A14981F88A0010E09F4981F88B000CE0CC
:102F50009D49A1F8920008E09F49A1F8680004E0AB
:102F6000994981F8900000E000BF25E1964991F869
:102F70009010012948D193494978082942D2DFE8C5
:102F800001F004070D102341383D904A10703AE0DB
:102F9000012800DD00208E4A107034E08F4A108036
:102FA00031E001EE100AF8EEC10A9FED8D1AC0EE75
:102FB000811A8C49C1ED021A9FED891AC0EE811A5F
:102FC0008949C1ED021A1EE001EE100AB8EEC10AED
:102FD0009FED831AC0EE011A8249C1ED031A9FEDDD
:102FE000801AC0EE011A00E0E9E07F49C1ED031A42
:102FF00009E07C4948617C49486104E0724981F8F4
:10300000900000E000BFD7E06F4991F890100229CE
:1030100036D16C494978082930D2DFE801F004073D
:103020000D101C2F282B694A107028E0012800DDA4
:103030000020674A107022E06649C8801FE001EE58
:10304000100AF8EEC10A9FED661AC0EE811A6749B0
:10305000C1ED021A13E001EE100AB8EEC10A9FEDAD
:10306000601AC0EE011A6149C1ED031A07E05F4919
:10307000486104E0544981F8900000E000BF9BE003
:10308000514991F89010032936D14E4949780829C1
:1030900030D2DFE801F004072F0D1925282B4B4A09
:1030A000107028E0012800DD0020494A107022E05D
:1030B00001EE100AF8EEC10A9FED491AC0EE811A1E
:1030C0004B49C1ED021A16E001EE100AB8EEC10A32
:1030D0009FED431AC0EE011A4549C1ED031A0AE0FB
:1030E0003D49C86407E04349086004E0364981F877
:1030F000900000E000BF5FE0334991F89010042990
:1031000029D130494978082923D2DFE801F00407A2
:103110000D1114171A1E2D4A10701BE0012800DD36
:1031200000202B4A107015E02A4981F8400011E078
:10313000294A50860EE0284A10860BE0264A9086DF
:1031400008E02549A1F8680004E01F4981F89000D3
:1031500000E000BF30E01C4991F8901005292BD108
:1031600018494978082925D2DFE801F004070D1134
:1031700014181C20154A10701DE0012800DD0020E5
:10318000134A107017E01049A1F88C0013E01149A0
:10319000888610E00C4981F88E000CE00A4981F81D
:1031A0008F0008E00C49A1F86A0004E0064981F8A4
:1031B000900000E000BF00BF0021014A118070476D
:1031C000E6C0FF1F42C1FF1F42700020E8C0FF1F82
:1031D000E9C0FF1F00000020D8700020EAC0FF1FD8
:1031E00000401C4620C0FF1F38C0FF1F50C0FF1FFB
:1031F00008C0FF1FACC0FF1F2DE9F041044620B2FC
:10320000FDF760FF1449098C10FB01F0471020B254
:10321000FEF7F4FF1049498C10FB01F0A7EB6005A5
:1032200020B2FEF7EBFF0C49098C10FB01F04710B0
:1032300020B2FDF747FF0849498C10FB01F007EB6E
:103240006006A81301B204488184B01301B2024899
:10325000C184BDE8F08100000000002010B5564890
:10326000006856490880FEF761FF554890F83E0017
:10327000012804D0022814D003287DD133E0002097
:10328000FEF71EFDFEF7DEFDFEF760FE0020FFF7F5
:10329000B3FF4B4AB2F92610B2F92400FFF746F902
:1032A0006BE0FDF793FAFFF765F8FEF7B5FFFDF762
:1032B000D3FBFEF7D7FF4249C98E88B2FEF700FD67
:1032C000FEF7C0FDFEF742FE3D49C98E88B2FFF70A
:1032D00093FF3B4AB2F92610B2F92400FFF726F912
:1032E000FEF714FB49E0FDF771FAFFF743F8FDF72D
:1032F000B3FB344890F8520008B9FEF7A3FB3149FC
:10330000B1F8421088B2FEF7DBFCFEF79BFDFEF73A
:103310001DFE2C49B1F8421088B2FFF76DFF284A14
:10332000B2F92610B2F92400FFF700F92548B0F8E9
:103330005C00401C2349A1F85C000846B0F85C0022
:1033400010280FDB0020A1F85C001F48008800B2A5
:103350001B4908800846B0F90200C0EB401040F35A
:10336000D7104880FEF7D2FA1649B1F9421048103A
:10337000FEF7C2FA01E0FFE700BF00BF1348006894
:1033800040F00100114908600846006840F008005C
:1033900008600846006840F0020008600C480068B9
:1033A00040F008000A4908600A48006840F0080038
:1033B0000949C1F8940110BD844700404200002033
:1033C00000000020D8700020EAC0FF1F9445004094
:1033D000944D00409451004000500040F0B52E48FC
:1033E0000078401EC0B22C490870002853D12B48E9
:1033F000B0F888102A4830F911402848B0F88810F1
:10340000284830F911502548B0F88810264830F97E
:1034100011602248B0F88810244830F911701F4814
:10342000B0F88800401C81B21C48A0F88810B0F8A1
:103430008800B0F5616F07D100211848A0F8881006
:1034400003201749891F8870A1201949087019485D
:1034500090F83E0048708C70200AC8700D75280ADC
:1034600048758E75300AC8750F76380A4876002080
:103470008876C87608771D210D48FDF733FE0C4984
:103480004877782088775620C87701200A49087045
:10349000322001490870F0BDE4C0FF1F42700020D7
:1034A00048000020681C002088380020A854002014
:1034B00022C1FF1F00000020E5C0FF1F70B50546B8
:1034C0000C461646284600F033F8281D316840F8AF
:1034D000341000EBC40071684160022C0CD200BFB4
:1034E000281D00EBC400406840F08071281D00EBEF
:1034F000C400416000BF00BF70BD10B5031D53F88C
:10350000313023F4E0031343041D44F8313010BD7F
:1035100070B504460D464FF4801229462046FFF749
:10352000ECFF002070BD00F1140343F82120704728
:1035300010B50446034800F063F8024800F06CF848
:1035400010BD00002000001030B58C1000F11003F9
:1035500053F824308C07E50EF824AC40A3438D10BB
:1035600000F1100444F82530436F4D000324AC40B3
:10357000A3434367204B984202D0204B984205D189
:10358000036E01248C40A343036624E0137803F008
:10359000800303B353688B404360CC1000F14003B9
:1035A00053F824304C07E50E0724AC40A343CD105C
:1035B00000F1400444F82530137A4C07E40EA34090
:1035C000CD1000F1400454F825402343CD1000F104
:1035D000400444F8253013788C07E40EA3408D1086
:1035E00000F1100454F8254023438D1000F110041D
:1035F00044F8253030BD0000008E0248008F02489C
:1036000010B5010F20F07042024B01EB410443F86A
:10361000242010BD4846005010B5010F20F0704224
:10362000024B01EB410443F8242010BD1444005028
:10363000002809DB00F01F0201219140420992009D
:1036400002F1E022C2F800117047000010B5002816
:1036500004DB8A06130E054A135406E08A06140E8C
:10366000034A00F00F031B1FD45410BD00E400E018
:1036700018ED00E008B50021009103E000BF0099BB
:10368000491C009100998142F8D308BD30B5002152
:1036900013E001240DE0622307E0E62201E0551E5D
:1036A000EAB2002AFBDC5D1EEBB2002BF5DC651EE6
:1036B000ECB2002CEFDC4D1CA9B28142E9DB30BD3D
:1036C00072B6524800684FF47A72B0FBF2F1481EAD
:1036D000B0F1807F00D31BE0481E4FF0E022506124
:1036E00050173F22002804DB93061C0E484B1C5445
:1036F00006E093061D0E474B00F00F04241F1D55D6
:1037000000BF00204FF0E02290610720106100BF51
:10371000FEF736F9FCF730FFFDF7C2FAFEF7DAFCE8
:10372000FEF7DAF8FFF78EFA4FF4FA60FEF7E4F8E6
:10373000C820FFF7ABFFFEF75FF8FEF75FFB62B64E
:10374000FDF7B6FC61E0FFF741F8FEF711FB3248E8
:1037500090F83E0030B101281FD0022834D0032851
:1037600051D144E02C48007938B9FFF741F80020E6
:10377000294981F83E00FEF709FA27480079012817
:103780000AD1FFF743F80120234981F83E000020C9
:1037900048804FF4D270088036E01F48007938B96D
:1037A000FFF726F800201C4981F83E00FEF7EEF9ED
:1037B00019480079022806D1174981F83E000020F7
:1037C0004880FA2008801FE01348007938B9FFF7D5
:1037D0000FF80020104981F83E00FEF7D7F90E4897
:1037E0000079032802D10C4981F83E000CE00A4818
:1037F000007938B9FEF7FCFF0020074981F83E0048
:10380000FEF7C4F900E000BF00BF9CE7C0FF002046
:1038100000E400E018ED00E0000000202DE9C041C8
:1038200030B4DFF8A0C23CEA111418BF3CEA13140C
:1038300000F0EC8081EA03051CEA111444EAD57417
:1038400018BF1CEA131500F0C780A4EB05044FF065
:10385000004545EAC12145EAC32341EA505143EA04
:10386000525304F17F74994204F500344FEAC020AA
:103870004FEAC22208BF904200F09C804FEA1365D5
:103880000FF24016765D4FEA134506FB05F7C7F1C8
:10389000807706FB07F74FEAD737A7FB0368764226
:1038A000C8F58038A7FB06CE38BFA8F1010807FB92
:1038B00008E64FF0000EA6FB028CE6FB03CEDCF11F
:1038C000000CCEF1004E38BFAEF1010EA6FB0C5835
:1038D0004FF000074FF00005E6FB0E87A1FB08C67E
:1038E000A0FB07CE16EB0E0645F10005E1FB0765D0
:1038F00015F1E04E7EBFA4F580345FEA46066D41C7
:1039000016F1800745F100054FEA17274FEA0666D2
:1039100047EA0567A6F1DE46B6F1805F4FEA152556
:103920001FD9384624F0010C05EBC471BCF1FE6FC1
:1039300001EB0C1102D8F0BCBDE8008124425CBF51
:1039400001F5801E9EEAC47F02D4F0BCBDE8008170
:10395000244238D4F0BCA1F1C041BDE8004100F0E0
:1039600084B94FEAD22242EA43524FEAD323A7FB5B
:1039700002864FEAD02040EA415007FB03661EEA68
:103980000E0F4FEAD12105FB026658BFA6EB005689
:10399000B6EB00564FEA520E4EEAC37E18EB0E0EFF
:1039A00056EB530EBDD518EB02085E417F1C55F156
:1039B0000005B6E74FF480154FF000074FF0000602
:1039C0004FF00008ADE7F0BC4FF0000001F1C0413E
:1039D00001F00041BDE8008111EA0C1F0CEA13154B
:1039E00000D00CE013EA0C1F00F025804FF000001F
:1039F000F0BC81EA030101F00041BDE80081F0BCA8
:103A0000BDE8004181EA030100F02FB9F0BCBDE838
:103A1000004170B500F0DBF8097EFC3E00F007B80D
:103A200081EA03014FF0000001F00041704781EA94
:103A3000030100F01AB9F0BCBDE800414FF00000EE
:103A400021497047FFFDFBF9F7F5F4F2F0EEEDEBDD
:103A5000E9E8E6E4E3E1E0DEDDDBDAD8D7D5D4D38C
:103A6000D1D0CFCDCCCBCAC8C7C6C5C4C2C1C0BFD8
:103A7000BEBDBCBBBAB9B8B7B6B5B4B3B2B1B0AFDE
:103A8000AEADACABAAA9A8A8A7A6A5A4A3A3A2A1C2
:103A9000A09F9F9E9D9C9C9B9A999998979796957D
:103AA00095949393929191908F8F8E8E8D8C8C8B19
:103AB0008B8A8989888887878685858484838382A1
:103AC000828181800000FF070000F87F4FEA4103F8
:103AD0004FEA5353A3F58063D3F11E03C8BFD3F15C
:103AE000210C0CDD4FF0004242EAC12242EA505262
:103AF00032FA03FC8CEAE17CACEBE1707047102BEE
:103B0000C4BF0020704703F5787CBCF1FF3F04D0B0
:103B10006FF0004282EA2100704770B500F057F85C
:103B20004992248000207047F2E700007FEAE172AA
:103B300002D1101A62EB0101B1FA81F30B3B24D3DD
:103B4000994012D1B0FA80F310FA03F108BF704720
:103B5000C3F11D0303F5406303EBC2234FEAD122F7
:103B60004FEA415002EB03517047C3F1200C20FA99
:103B70000CFC9840C3F1320303F5406303EBC2230E
:103B800041EA0C0101EB0351704710B5C3F1320C4F
:103B9000C3F10004C4F1200E0CF5406C0CEBC22202
:103BA00001FA0EFC21FA04F100FA0EF3E040BDE840
:103BB000104040EA0C0001EB025138BF7047401C36
:103BC00041F100015B0008BF20F0010070470EF1D9
:103BD000020E2EF0030E5EF8046B364205D4012A65
:103BE00043EB030515F5001F12D8012841EB010C2A
:103BF0001CF5001F0CD80ED14FEAD17C15F5001F23
:103C00000CEB4C0C0CF1020C08BF4CEBD37C04E029
:103C10004FF0080C01E04FEAD37C0CEB4C0526FA80
:103C200005F606F00706B6F1040C06D20EEB860C7C
:103C3000BDE870404CF0010C6047DFE80CF0090B68
:103C400002024FF000414FF00000A1F5002170BDCD
:103C500019461046012851EB010418BFD4F5001491
:103C600084BF002001F0004170BD0808A0F50011DC
:103C70004FEA310170474FF04070E1EE100A704793
:103C8000000039007200AB00E4001D0157019001F3
:103C9000C90102023B027402AE02E702200359038B
:103CA0009203CB0305043E047704B004E904220523
:103CB0005B059405CE05070640067906B206EB06BD
:103CC00024075D079607CF07090842087B08B40858
:103CD000ED0826095F099809D1090A0A430A7C0AF6
:103CE000B50AEE0A270B600B990BD20B0A0C430C9A
:103CF0007C0CB50CEE0C270D600D990DD20D0A0E43
:103D0000430E7C0EB50EEE0E260F5F0F980FD10FEF
:103D1000091042107B10B410EC1025115E119611A1
:103D2000CF11071240127912B112EA1222135B135B
:103D30009313CC1304143D147514AE14E6141E151D
:103D400057158F15C815001638167116A916E116E5
:103D5000191752178A17C217FA1732186A18A318B8
:103D6000DB1813194B198319BB19F3192B1A631A92
:103D70009B1AD31A0B1B421B7A1BB21BEA1B221C79
:103D8000591C911CC91C011D381D701DA81DDF1D6B
:103D9000171E4E1E861EBD1EF51E2C1F641F9B1F68
:103DA000D31F0A2041207920B020E7201E21562170
:103DB0008D21C421FB2132226922A022D7220E2389
:103DC00045237C23B323EA23212458248F24C524AC
:103DD000FC2433256A25A025D7250E2644267B26DC
:103DE000B126E8261E2755278B27C127F8272E281E
:103DF00064289A28D12807293D297329A929DF2970
:103E0000152A4B2A812AB72AED2A232B592B8E2BD0
:103E1000C42BFA2B2F2C652C9B2CD02C062D3B2D44
:103E2000712DA62DDC2D112E462E7C2EB12EE62EC8
:103E30001B2F502F862FBB2FF02F25305A308E305E
:103E4000C330F8302D3162319731CB31003234320A
:103E500069329E32D23207333B336F33A433D833C7
:103E60000C3440347534A934DD3411354535793599
:103E7000AD35E135143648367C36B036E336173783
:103E80004B377E37B237E53719384C387F38B3387F
:103E9000E63819394C397F39B239E539183A4B3A95
:103EA0007E3AB13AE43A163B493B7C3BAE3BE13BC0
:103EB000133C463C783CAB3CDD3C0F3D413D743D02
:103EC000A63DD83D0A3E3C3E6E3EA03ED23E033F5C
:103ED000353F673F983FCA3FFB3F2D405E409040D3
:103EE000C140F240244155418641B741E841194261
:103EF0004A427B42AC42DD420D433E436F439F4307
:103F0000D0430044314461449144C144F2442245C9
:103F100052458245B245E245124641467146A146A8
:103F2000D146004730475F478F47BE47ED471D48A2
:103F30004C487B48AA48D9480849374966499549B9
:103F4000C349F249214A4F4A7E4AAC4ADB4A094BEF
:103F5000374B664B944BC24BF04B1E4C4C4C7A4C3F
:103F6000A84CD54C034D314D5E4D8C4DB94DE74DB0
:103F7000144E414E6E4E9B4EC94EF64E234F4F4F40
:103F80007C4FA94FD64F02502F505C508850B450F0
:103F9000E1500D51395165519251BE51E9511552BF
:103FA00041526D529952C452F0521B5347537253AF
:103FB0009E53C953F4531F544A547554A054CB54C0
:103FC000F65420554B557655A055CB55F5551F56F3
:103FD0004A5674569E56C856F2561C574657705746
:103FE0009957C357EC5716583F5869589258BB58C1
:103FF000E5580E59375960598859B159DA59035A59
:104000002B5A545A7C5AA55ACD5AF55A1D5B465B19
:104010006E5B965BBD5BE55B0D5C355C5C5C845CFC
:10402000AB5CD35CFA5C215D495D705D975DBE5D04
:10403000E45D0B5E325E595E7F5EA65ECC5EF35E33
:10404000195F3F5F655F8B5FB15FD75FFD5F236087
:1040500049606E609460B960DF60046129614E61FF
:1040600073619961BD61E26107622C6250627562A1
:104070009A62BE62E26207632B634F637363976366
:10408000BB63DE630264266449646D649064B36458
:10409000D764FA641D65406563658665A965CB656F
:1040A000EE6510663366556677669A66BC66DE66B0
:1040B00000672267446765678767A867CA67EB6719
:1040C0000D682E684F6870689168B268D368F468AC
:1040D00014693569556976699669B669D769F7696A
:1040E000176A376A576A766A966AB66AD56AF56A4F
:1040F000146B336B526B716B906BAF6BCE6BED6B64
:104100000C6C2A6C496C676C866CA46CC26CE06C9D
:10411000FE6C1C6D3A6D586D756D936DB06DCE6D06
:10412000EB6D086E256E426E5F6E7C6E996EB66E9C
:10413000D26EEF6E0B6F286F446F606F7C6F986F5D
:10414000B46FD06FEC6F087023703F705A70767048
:104150009170AC70C770E270FD70187132714D7162
:10416000687182719C71B771D171EB7105721F72A8
:10417000397252726C7286729F72B872D272EB721E
:1041800004731D7336734F73687380739973B173BF
:10419000CA73E273FA7312742A7442745A74727492
:1041A0008974A174B974D074E774FE7416752D7592
:1041B00044755A75717588759E75B575CB75E275C0
:1041C000F8750E7624763A76507665767B7691761B
:1041D000A676BB76D176E676FB76107725773A77AA
:1041E0004E77637778778C77A077B577C977DD7767
:1041F000F177057819782C784078537867787A7851
:104200008D78A078B378C678D978EC78FF78117972
:104210002479367948795B796D797F799179A279BA
:10422000B479C679D779E979FA790B7A1C7A2D7A3B
:104230003E7A4F7A607A717A817A927AA27AB27AE9
:10424000C37AD37AE37AF37A027B127B227B317BC7
:10425000417B507B5F7B6E7B7D7B8C7B9B7BAA7BDA
:10426000B97BC77BD67BE47BF27B007C0F7C1D7C1B
:104270002A7C387C467C537C617C6E7C7C7C897C8F
:10428000967CA37CB07CBD7CC97CD67CE37CEF7C37
:10429000FB7C087D147D207D2C7D377D437D4F7D0B
:1042A0005A7D667D717D7C7D887D937D9E7DA87D18
:1042B000B37DBE7DC87DD37DDD7DE87DF27DFC7D57
:1042C000067E107E197E237E2D7E367E407E497EC0
:1042D000527E5B7E647E6D7E767E7F7E877E907E64
:1042E000987EA07EA97EB17EB97EC17EC87ED07E3A
:1042F000D87EDF7EE77EEE7EF57EFC7E037F0A7F42
:10430000117F187F1E7F257F2B7F327F387F3E7F76
:10431000447F4A7F507F567F5B7F617F667F6B7FE4
:10432000717F767F7B7F807F857F897F8E7F937F84
:10433000977F9B7FA07FA47FA87FAC7FAF7FB37F59
:10434000B77FBA7FBE7FC17FC47FC87FCB7FCE7F60
:10435000D07FD37FD67FD87FDB7FDD7FDF7FE17F9C
:10436000E47FE57FE77FE97FEB7FEC7FEE7FEF7F08
:10437000F07FF17FF37FF37FF47FF57FF67FF67FA9
:10438000F77FF77FF77FF77FF87FF77FF77FF77F7C
:10439000F77FF67FF67FF57FF47FF37FF37FF17F82
:1043A000F07FEF7FEE7FEC7FEB7FE97FE77FE57FBC
:1043B000E47FE17FDF7FDD7FDB7FD87FD67FD37F28
:1043C000D07FCE7FCB7FC87FC47FC17FBE7FBA7FC7
:1043D000B77FB37FAF7FAC7FA87FA47FA07F9B7F99
:1043E000977F937F8E7F897F857F807F7B7F767F9E
:1043F000717F6B7F667F617F5B7F567F507F4A7FD7
:10440000447F3E7F387F327F2B7F257F1E7F187F42
:10441000117F0A7F037FFC7EF57EEE7EE77EDF7EE6
:10442000D87ED07EC87EC17EB97EB17EA97EA07EB8
:10443000987E907E877E7F7E767E6D7E647E5B7EBC
:10444000527E497E407E367E2D7E237E197E107EF2
:10445000067EFC7DF27DE87DDD7DD37DC87DBE7D61
:10446000B37DA87D9E7D937D887D7C7D717D667DFD
:104470005A7D4F7D437D377D2C7D207D147D087DC9
:10448000FB7CEF7CE37CD67CC97CBD7CB07CA37CD0
:10449000967C897C7C7C6E7C617C537C467C387C01
:1044A0002A7C1D7C0F7C007CF27BE47BD67BC77B67
:1044B000B97BAA7B9B7B8C7B7D7B6E7B5F7B507B00
:1044C000417B317B227B127B027BF37AE37AD37AC6
:1044D000C37AB27AA27A927A817A717A607A4F7AC2
:1044E0003E7A2D7A1C7A0B7AFA79E979D779C679EE
:1044F000B479A27991797F796D795B794879367948
:1045000024791179FF78EC78D978C678B378A078D7
:104510008D787A786778537840782C781978057890
:10452000F177DD77C977B577A0778C777877637780
:104530004E773A7725771077FB76E676D176BB769D
:10454000A67691767B76657650763A7624760E76E8
:10455000F875E275CB75B5759E75887571755A7568
:1045600044752D751675FE74E774D074B974A17412
:10457000897472745A7442742A741274FA73E273EE
:10458000CA73B1739973807368734F7336731D73F5
:104590000473EB72D272B8729F7286726C7252722E
:1045A00039721F720572EB71D171B7719C71827192
:1045B00068714D7132711871FD70E270C770AC7026
:1045C000917076705A703F7023700870EC6FD06FE6
:1045D000B46F986F7C6F606F446F286F0B6FEF6ED6
:1045E000D26EB66E996E7C6E5F6E426E256E086EF0
:1045F000EB6DCE6DB06D936D756D586D3A6D1C6D34
:10460000FE6CE06CC26CA46C866C676C496C2A6CA6
:104610000C6CED6BCE6BAF6B906B716B526B336B45
:10462000146BF56AD56AB66A966A766A576A376A0B
:10463000176AF769D769B669966976695569356900
:104640001469F468D368B268916870684F682E681E
:104650000D68EB67CA67A867876765674467226765
:104660000067DE66BC669A667766556633661066D6
:10467000EE65CB65A9658665636540651D65FA6471
:10468000D764B36490646D64496426640264DE6335
:10469000BB63976373634F632B630763E262BE621E
:1046A0009A62756250622C620762E261BD61996133
:1046B00073614E6129610461DF60B96094606E606E
:1046C00049602360FD5FD75FB15F8B5F655F3F5FD0
:1046D000195FF35ECC5EA65E7F5E595E325E0B5E56
:1046E000E45DBE5D975D705D495D215DFA5CD35C04
:1046F000AB5C845C5C5C355C0D5CE55BBD5B965BD8
:104700006E5B465B1D5BF55ACD5AA55A7C5A545ACE
:104710002B5A035ADA59B1598859605937590E59E9
:10472000E558BB58925869583F581658EC57C3572C
:104730009957705746571C57F256C8569E5674568E
:104740004A561F56F555CB55A05576554B55205515
:10475000F654CB54A05475544A541F54F453C953BF
:104760009E53725347531B53F052C45299526D5289
:1047700041521552E951BE519251655139510D5175
:10478000E150B45088505C502F500250D64FA94F82
:104790007C4F4F4F234FF64EC94E9B4E6E4E414EAF
:1047A000144EE74DB94D8C4D5E4D314D034DD54CFA
:1047B000A84C7A4C4C4C1E4CF04BC24B944B664B65
:1047C000374B094BDB4AAC4A7E4A4F4A214AF249F1
:1047D000C3499549664937490849D948AA487B4899
:1047E0004C481D48ED47BE478F475F47304700475D
:1047F000D146A146714641461246E245B245824540
:1048000052452245F244C14491446144314400443C
:10481000D0439F436F433E430D43DD42AC427B4256
:104820004A421942E841B741864155412441F2408C
:10483000C14090405E402D40FB3FCA3F983F673FDC
:10484000353F033FD23EA03E6E3E3C3E0A3ED83D41
:10485000A63D743D413D0F3DDD3CAB3C783C463CC4
:10486000133CE13BAE3B7C3B493B163BE43AB13A5F
:104870007E3A4B3A183AE539B2397F394C39193911
:10488000E638B3387F384C381938E537B2377E37D9
:104890004B371737E336B0367C3648361436E135B9
:1048A000AD35793545351135DD34A93475344034AD
:1048B0000C34D833A4336F333B330733D2329E32B8
:1048C000693234320032CB31973162312D31F830D8
:1048D000C3308E305A302530F02FBB2F862F502F0B
:1048E0001B2FE62EB12E7C2E462E112EDC2DA62D52
:1048F000712D3B2D062DD02C9B2C652C2F2CFA2BAB
:10490000C42B8E2B592B232BED2AB72A812A4B2A15
:10491000152ADF29A92973293D290729D1289A2891
:1049200064282E28F827C1278B2755271E27E8261D
:10493000B1267B2644260E26D725A0256A253325B9
:10494000FC24C5248F2458242124EA23B3237C2368
:1049500045230E23D722A02269223222FB21C42123
:104960008D2156211E21E720B020792041200A20E8
:10497000D31F9B1F641F2C1FF51EBD1E861E4E1EBF
:10498000171EDF1DA81D701D381D011DC91C911C9F
:10499000591C221CEA1BB21B7A1B421B0B1BD31A8D
:1049A0009B1A631A2B1AF319BB1983194B19131984
:1049B000DB18A3186A183218FA17C2178A17521789
:1049C0001917E116A916711638160016C8158F1595
:1049D00057151E15E614AE1475143D140414CC13AB
:1049E00093135B132213EA12B112791240120712C9
:1049F000CF1196115E112511EC10B4107B104210EE
:104A00000910D10F980F5F0F260FEE0EB50E7C0E1A
:104A1000430E0A0ED20D990D600D270DEE0CB50C4C
:104A20007C0C430C0A0CD20B990B600B270BEE0A83
:104A3000B50A7C0A430A0A0AD10998095F092609BE
:104A4000ED08B4087B0842080908CF0796075D0700
:104A50002407EB06B206790640060706CE05940544
:104A60005B052205E904B00477043E040504CB038A
:104A7000920359032003E702AE0274023B020202D2
:104A8000C901900157011D01E400AB00720039001B
:104A90000000C7FF8EFF55FF1CFFE3FEA9FE70FE5E
:104AA00037FEFEFDC5FD8CFD52FD19FDE0FCA7FCA7
:104AB0006EFC35FCFBFBC2FB89FB50FB17FBDEFAEF
:104AC000A5FA6CFA32FAF9F9C0F987F94EF915F935
:104AD000DCF8A3F86AF831F8F7F7BEF785F74CF77A
:104AE00013F7DAF6A1F668F62FF6F6F5BDF584F5BC
:104AF0004BF512F5D9F4A0F467F42EF4F6F3BDF3F8
:104B000084F34BF312F3D9F2A0F267F22EF2F6F12E
:104B1000BDF184F14BF112F1DAF0A1F068F02FF061
:104B2000F7EFBEEF85EF4CEF14EFDBEEA2EE6AEE8F
:104B300031EEF9EDC0ED87ED4FED16EDDEECA5ECB5
:104B40006DEC34ECFCEBC3EB8BEB52EB1AEBE2EAD3
:104B5000A9EA71EA38EA00EAC8E98FE957E91FE9EA
:104B6000E7E8AEE876E83EE806E8CEE796E75DE7F8
:104B700025E7EDE6B5E67DE645E60DE6D5E59DE5FE
:104B800065E52DE5F5E4BEE486E44EE416E4DEE3F7
:104B9000A7E36FE337E3FFE2C8E290E258E221E2E5
:104BA000E9E1B2E17AE143E10BE1D4E09CE065E0C8
:104BB0002DE0F6DFBFDF87DF50DF19DFE2DEAADEA0
:104BC00073DE3CDE05DECEDD97DD60DD29DDF2DC67
:104BD000BBDC84DC4DDC16DCDFDBA8DB71DB3BDB24
:104BE00004DBCDDA96DA60DA29DAF2D9BCD985D9D4
:104BF0004FD918D9E2D8ABD875D83FD808D8D2D772
:104C00009CD766D72FD7F9D6C3D68DD657D621D6FF
:104C1000EBD5B5D57FD549D513D5DDD4A7D472D47E
:104C20003CD406D4D1D39BD365D330D3FAD2C5D2EA
:104C30008FD25AD224D2EFD1BAD184D14FD11AD146
:104C4000E5D0B0D07AD045D010D0DBCFA6CF72CF90
:104C50003DCF08CFD3CE9ECE69CE35CE00CECCCDC3
:104C600097CD62CD2ECDF9CCC5CC91CC5CCC28CCE7
:104C7000F4CBC0CB8BCB57CB23CBEFCABBCA87CAF5
:104C800053CA1FCAECC9B8C984C950C91DC9E9C8EB
:104C9000B5C882C84EC81BC8E7C7B4C781C74DC7CF
:104CA0001AC7E7C6B4C681C64EC61BC6E8C5B5C599
:104CB00082C54FC51CC5EAC4B7C484C452C41FC44E
:104CC000EDC3BAC388C355C323C3F1C2BFC28CC2EC
:104CD0005AC228C2F6C1C4C192C160C12EC1FDC072
:104CE000CBC099C068C036C005C0D3BFA2BF70BFDB
:104CF0003FBF0EBFDCBEABBE7ABE49BE18BEE7BD2D
:104D0000B6BD85BD54BD23BDF3BCC2BC91BC61BC66
:104D100030BC00BCCFBB9FBB6FBB3FBB0EBBDEBA82
:104D2000AEBA7EBA4EBA1EBAEEB9BFB98FB95FB984
:104D30002FB900B9D0B8A1B871B842B813B8E3B769
:104D4000B4B785B756B727B7F8B6C9B69AB66BB633
:104D50003DB60EB6DFB5B1B582B554B525B5F7B4DD
:104D6000C9B49AB46CB43EB410B4E2B3B4B386B36D
:104D700058B32BB3FDB2CFB2A2B274B247B219B2DC
:104D8000ECB1BFB192B165B137B10AB1DDB0B1B02C
:104D900084B057B02AB0FEAFD1AFA4AF78AF4CAF5C
:104DA0001FAFF3AEC7AE9BAE6EAE42AE17AEEBAD6D
:104DB000BFAD93AD67AD3CAD10ADE5ACB9AC8EAC5D
:104DC00062AC37AC0CACE1ABB6AB8BAB60AB35AB2C
:104DD0000AABE0AAB5AA8AAA60AA35AA0BAAE1A9D9
:104DE000B6A98CA962A938A90EA9E4A8BAA890A866
:104DF00067A83DA814A8EAA7C1A797A76EA745A7CB
:104E00001BA7F2A6C9A6A0A678A64FA626A6FDA512
:104E1000D5A5ACA584A55BA533A50BA5E3A4BAA431
:104E200092A46AA443A41BA4F3A3CBA3A4A37CA32E
:104E300055A32DA306A3DFA2B7A290A269A242A206
:104E40001CA2F5A1CEA1A7A181A15AA134A10DA1B7
:104E5000E7A0C1A09BA075A04FA029A003A0DD9F43
:104E6000B79F929F6C9F479F219FFC9ED79EB29EAB
:104E70008D9E679E439E1E9EF99DD49DB09D8B9DE9
:104E8000669D429D1E9DF99CD59CB19C8D9C699C04
:104E9000459C229CFE9BDA9BB79B939B709B4D9BF2
:104EA000299B069BE39AC09A9D9A7A9A579A359ABB
:104EB000129AF099CD99AB9989996699449922995A
:104EC0000099DE98BC989B987998589836981598D0
:104ED000F397D297B19790976F974E972D970C971E
:104EE000EC96CB96AB968A966A964A962996099640
:104EF000E995C995A9958A956A954A952B950B953B
:104F0000EC94CD94AE948F94709451943294139405
:104F1000F493D693B79399937A935C933E932093AB
:104F20000293E492C692A8928B926D925092329222
:104F30001592F891DB91BE91A191849167914A916C
:104F40002E911191F590D890BC90A090849068908B
:104F50004C9030901490F88FDD8FC18FA68F8A8F80
:104F60006F8F548F398F1E8F038FE88ECE8EB38E46
:104F7000988E7E8E648E498E2F8E158EFB8DE18DE0
:104F8000C78DAE8D948D7A8D618D488D2E8D158D4A
:104F9000FC8CE38CCA8CB18C988C808C678C4F8C89
:104FA000368C1E8C068CEE8BD68BBE8BA68B8E8B96
:104FB000778B5F8B478B308B198B028BEA8AD38A76
:104FC000BC8AA68A8F8A788A628A4B8A358A1E8A28
:104FD000088AF289DC89C689B0899B8985896F89AD
:104FE0005A8945892F891A890589F088DB88C688FE
:104FF000B2889D888888748860884B883788238821
:105000000F88FB87E787D487C087AD879987868716
:10501000738760874D873A87278714870187EF86D4
:10502000DC86CA86B886A586938681866F865E866C
:105030004C863A86298617860686F585E485D385CB
:10504000C285B185A0858F857F856E855E854E85FD
:105050003D852D851D850D85FE84EE84DE84CF84FF
:10506000BF84B084A18492848384748465845684CC
:10507000478439842A841C840E840084F183E3836A
:10508000D683C883BA83AD839F83928384837783D7
:105090006A835D835083438337832A831D8311830F
:1050A0000583F882EC82E082D482C982BD82B1821B
:1050B000A6829A828F82848278826D8262825882EE
:1050C0004D82428238822D82238218820E8204828F
:1050D000FA81F081E781DD81D381CA81C081B78106
:1050E000AE81A5819C8193818A8181817981708142
:1050F0006881608157814F8147813F81388130814C
:1051000028812181198112810B810481FD80F68023
:10511000EF80E880E280DB80D580CE80C880C280CE
:10512000BC80B680B080AA80A5809F809A80958040
:105130008F808A80858080807B80778072806D8080
:105140006980658060805C805880548051804D808B
:105150004980468042803F803C8038803580328064
:1051600030802D802A8028802580238021801F8008
:105170001C801B801980178015801480128011807C
:1051800010800F800D800D800C800B800A800A80BB
:1051900009800980098009800880098009800980C8
:1051A00009800A800A800B800C800D800D800F80A2
:1051B00010801180128014801580178019801B8048
:1051C0001C801F8021802380258028802A802D80BC
:1051D00030803280358038803C803F8042804680FD
:1051E00049804D805180548058805C80608065800B
:1051F00069806D80728077807B80808085808A80E6
:105200008F8095809A809F80A580AA80B080B6808C
:10521000BC80C280C880CE80D580DB80E280E88000
:10522000EF80F680FD8004810B811281198121813C
:105230002881308138813F8147814F81578160814A
:1052400068817081798181818A8193819C81A58126
:10525000AE81B781C081CA81D381DD81E781F081D0
:10526000FA8104820E82188223822D823882428241
:105270004D82588262826D82788284828F829A8285
:10528000A682B182BD82C982D482E082EC82F88299
:10529000058311831D832A833783438350835D8372
:1052A0006A837783848392839F83AD83BA83C88321
:1052B000D683E383F18300840E841C842A8439849A
:1052C000478456846584748483849284A184B084E2
:1052D000BF84CF84DE84EE84FE840D851D852D85FC
:1052E0003D854E855E856E857F858F85A085B185E0
:1052F000C285D385E485F5850686178629863A8694
:105300004C865E866F8681869386A586B886CA8619
:10531000DC86EF860187148727873A874D87608769
:10532000738786879987AD87C087D487E787FB8790
:105330000F88238837884B886088748888889D8880
:10534000B288C688DB88F08805891A892F89458943
:105350005A896F8985899B89B089C689DC89F289D8
:10536000088A1E8A358A4B8A628A788A8F8AA68A38
:10537000BC8AD38AEA8A028B198B308B478B5F8B6E
:10538000778B8E8BA68BBE8BD68BEE8B068C1E8C72
:10539000368C4F8C678C808C988CB18CCA8CE38C4B
:1053A000FC8C158D2E8D488D618D7A8D948DAE8DF2
:1053B000C78DE18DFB8D158E2F8E498E648E7E8E6E
:1053C000988EB38ECE8EE88E038F1E8F398F548FBA
:1053D0006F8F8A8FA68FC18FDD8FF88F14903090DA
:1053E0004C9068908490A090BC90D890F5901191CA
:1053F0002E914A9167918491A191BE91DB91F89190
:105400001592329250926D928B92A892C692E4922B
:10541000029320933E935C937A939993B793D69398
:10542000F49313943294519470948F94AE94CD94D9
:10543000EC940B952B954A956A958A95A995C995F3
:10544000E995099629964A966A968A96AB96CB96DE
:10545000EC960C972D974E976F979097B197D297A0
:10546000F39715983698589879989B98BC98DE9839
:1054700000992299449966998999AB99CD99F099A7
:10548000129A359A579A7A9A9D9AC09AE39A069BED
:10549000299B4D9B709B939BB79BDA9BFE9B229C09
:1054A000459C699C8D9CB19CD59CF99C1E9D429D00
:1054B000669D8B9DB09DD49DF99D1E9E439E679ECB
:1054C0008D9EB29ED79EFC9E219F479F6C9F929F70
:1054D000B79FDD9F03A029A04FA075A09BA0C1A0EE
:1054E000E7A00DA134A15AA181A1A7A1CEA1F5A148
:1054F0001CA242A269A290A2B7A2DFA206A32DA37A
:1055000055A37CA3A4A3CBA3F3A31BA443A46AA485
:1055100092A4BAA4E3A40BA533A55BA584A5ACA56E
:10552000D5A5FDA526A64FA678A6A0A6C9A6F2A633
:105530001BA745A76EA797A7C1A7EAA714A83DA8D0
:1055400067A890A8BAA8E4A80EA938A962A98CA94E
:10555000B6A9E1A90BAA35AA60AA8AAAB5AAE0AAA7
:105560000AAB35AB60AB8BABB6ABE1AB0CAC37ACDD
:1055700062AC8EACB9ACE5AC10AD3CAD67AD93ADF3
:10558000BFADEBAD17AE42AE6EAE9BAEC7AEF3AEE7
:105590001FAF4CAF78AFA4AFD1AFFEAF2AB057B0BA
:1055A00084B0B1B0DDB00AB137B165B192B1BFB16D
:1055B000ECB119B247B274B2A2B2CFB2FDB22BB302
:1055C00058B386B3B4B3E2B310B43EB46CB49AB477
:1055D000C9B4F7B425B554B582B5B1B5DFB50EB6CB
:1055E0003DB66BB69AB6C9B6F8B627B756B785B703
:1055F000B4B7E3B713B842B871B8A1B8D0B800B91E
:105600002FB95FB98FB9BFB9EEB91EBA4EBA7EBA1B
:10561000AEBADEBA0EBB3FBB6FBB9FBBCFBB00BCFD
:1056200030BC61BC91BCC2BCF3BC23BD54BD85BDC4
:10563000B6BDE7BD18BE49BE7ABEABBEDCBE0EBF6E
:105640003FBF70BFA2BFD3BF05C036C068C099C0FE
:10565000CBC0FDC02EC160C192C1C4C1F6C128C279
:105660005AC28CC2BFC2F1C223C355C388C3BAC3D6
:10567000EDC31FC452C484C4B7C4EAC41CC54FC51B
:1056800082C5B5C5E8C51BC64EC681C6B4C6E7C649
:105690001AC74DC781C7B4C7E7C71BC84EC882C861
:1056A000B5C8E9C81DC950C984C9B8C9ECC91FCA61
:1056B00053CA87CABBCAEFCA23CB57CB8BCBC0CB4D
:1056C000F4CB28CC5CCC91CCC5CCF9CC2ECD62CD22
:1056D00097CDCCCD00CE35CE69CE9ECED3CE08CFE1
:1056E0003DCF72CFA6CFDBCF10D045D07AD0B0D08F
:1056F000E5D01AD14FD184D1BAD1EFD124D25AD228
:105700008FD2C5D2FAD230D365D39BD3D1D306D4AE
:105710003CD472D4A7D4DDD413D549D57FD5B5D523
:10572000EBD521D657D68DD6C3D6F9D62FD766D787
:105730009CD7D2D708D83FD875D8ABD8E2D818D9DB
:105740004FD985D9BCD9F2D929DA60DA96DACDDA1F
:1057500004DB3BDB71DBA8DBDFDB16DC4DDC84DC50
:10576000BBDCF2DC29DD60DD97DDCEDD05DE3CDE75
:1057700073DEAADEE2DE19DF50DF87DFBFDFF6DF90
:105780002DE065E09CE0D4E00BE143E17AE1B2E199
:10579000E9E121E258E290E2C8E2FFE237E36FE399
:1057A000A7E3DEE316E44EE486E4BEE4F5E42DE58B
:1057B00065E59DE5D5E50DE645E67DE6B5E6EDE674
:1057C00025E75DE796E7CEE706E83EE876E8AEE84F
:1057D000E7E81FE957E98FE9C8E900EA38EA71EA22
:1057E000A9EAE2EA1AEB52EB8BEBC3EBFCEB34ECED
:1057F0006DECA5ECDEEC16ED4FED87EDC0EDF9EDAF
:1058000031EE6AEEA2EEDBEE14EF4CEF85EFBEEF69
:10581000F7EF2FF068F0A1F0DAF012F14BF184F11C
:10582000BDF1F6F12EF267F2A0F2D9F212F34BF3CA
:1058300084F3BDF3F6F32EF467F4A0F4D9F412F573
:105840004BF584F5BDF5F6F52FF668F6A1F6DAF618
:1058500013F74CF785F7BEF7F7F731F86AF8A3F8B6
:10586000DCF815F94EF987F9C0F9F9F932FA6CFA52
:10587000A5FADEFA17FB50FB89FBC2FBFBFB35FCEC
:105880006EFCA7FCE0FC19FD52FD8CFDC5FDFEFD84
:1058900037FE70FEA9FEE3FE1CFF55FF8EFFC7FF1B
:1058A00000008000000000000000800000000000F8
:1058B000E058000800C0FF1FF00000003C02000894
:1058C000E05800080000002024DF00005802000813
:1058D000D0590008F0C0FF1F800B000058020008DC
:1058E00000000000000000000000000000000000B8
:1058F000E02D103B4260653C000000008813000072
:1059000000000000000000008FC2753EDAACFA3CD7
:1059100000000000007D000000000000000000000A
:105920008FC2753EDAACFA3C00000000007D00003A
:105930000000000000000000CDCCCC3D52491D3AD3
:1059400000000000C409000000000000000000008A
:105950000000000000000000000000000000000047
:105960000000000000000000000000000000000037
:105970000000000000000000000000000000000027
:105980000000000000000000000000000000000017
:10599000000000000000000000000000005043472D
:1059A00000000000000000000000000000000000F7
:1059B00000000000000000000000000000000000E7
:1059C0000000000032000000000090010000000014
:0400000508000201EC
:00000001FF
